:020000040800F2
:1000000000090020B1010008952300084D230008D5
:10001000752300084D2300086D230008B301000874
:10002000B3010008B3010008B3010008413400081F
:10003000B3010008B3010008B3010008B3010008D0
:10004000B3010008B3010008B3010008B3010008C0
:10005000B3010008B301000899410008C14100083C
:10006000E94100081142000839420008B3010008C4
:10007000B3010008B3010008B3010008B301000890
:10008000B3010008B3010008B30100080123000810
:100090002D2300083D230008B30100086142000839
:1000A000B3010008B3010008B3010008B301000860
:1000B00035430008B3010008B3010008B30100088C
:1000C000B3010008B3010008B3010008B301000840
:1000D000B3010008B3010008B3010008B301000830
:1000E000C5420008B3010008B3010008B3010008CD
:1000F000B3010008B3010008B3010008B301000810
:10010000B3010008B3010008B3010008B3010008FF
:10011000B3010008B3010008B3010008B3010008EF
:10012000B3010008B3010008B3010008B3010008DF
:10013000B3010008B3010008B3010008B3010008CF
:10014000B3010008B3010008B3010008B3010008BF
:10015000B3010008B3010008B3010008B3010008AF
:10016000B3010008B3010008B3010008B30100089F
:10017000B3010008B3010008B3010008B30100088F
:10018000B3010008B3010008B3010008B30100087F
:10019000B3010008B3010008B3010008B30100086F
:1001A000010F000800000000000000000000000037
:1001B00002E000F000F8FEE772B6374880F30888E6
:1001C000364880F3098836483649086040F2000016
:1001D000CCF200004EF63471CEF200010860BFF39D
:1001E0004F8FBFF36F8F40F20000C0F2F0004EF669
:1001F0008851CEF200010860BFF34F8FBFF36F8FBD
:100200004FF00000E1EE100A4EF63C71CEF2000114
:100210000860062080F31488BFF36F8F03F0D8FDC9
:1002200003F05AFE4FF055301F491B4A91423CBF24
:1002300041F8040BFAE71D49184A91423CBF41F8C6
:10024000040BFAE71A491B4A1B4B9A423EBF51F86E
:10025000040B42F8040BF8E700201849184A9142B1
:100260003CBF41F8040BFAE703F0B6FD03F086FE4D
:10027000144C154DAC4203DA54F8041B8847F9E7D7
:1002800000F042F8114C124DAC4203DA54F8041B52
:100290008847F9E703F09EBD000900200011002007
:1002A0000000000808ED00E0000100200009002027
:1002B00040450008001100207C1100208011002022
:1002C000043B0020A0010008A4010008A4010008CC
:1002D000A40100082DE9F04F2DED108AC1F80CD0D3
:1002E000C3689D46BDEC108ABDE8F08F002383F300
:1002F00011882846A047002003F012FAFEE703F019
:100300009BF900DFFEE70000F8B500F00BFE03F0FC
:1003100001FD074603F052FD0646C0BB274B9F4236
:1003200035D001339F4235D0254B27F0FF029A424A
:1003300033D1F8B200F03AFC354642F2107400F0C6
:100340003BFC08B10024254601F0E2F848B3032045
:1003500000F03AF80024254636B11A4B9F4203D0EC
:1003600003F024FD00242546002003F0DDFC0DB140
:1003700000F040F800F054FC02F014F80546ACB967
:1003800000F096FC4FF47A7003F0D0F9F7E73546A9
:100390000024D4E704460125D1E705464FF47A74DA
:1003A000CDE7B4F57A7F08BF0125D5E701F0FAFF64
:1003B000431BA342E4D900F01DF8DDE7010007B0BC
:1003C000000008B0263A09B0084B187003280CD872
:1003D000DFE800F008050208022000F001BE02205C
:1003E00000F0F4BD024B00225A60704780110020DB
:1003F0008411002010B501F08BF830B1234B03229B
:100400001A70234B00225A6010BD224B224A1C4610
:1004100019680131F8D004339342F9D16268A242DD
:10042000F2D31E4B9B6803F1006303F520439A420D
:10043000EAD203F08DFC03F09FFC002000F08CFD5D
:100440000220FFF7C1FF164B9A6D00229A65996F43
:100450009A67996FD96DDA65D96FDA67D96F196EB6
:100460001A66D3F88010C3F88020D3F8803072B6B3
:100470004FF0E0233021C3F8084DD4E9003281F376
:1004800011889D4683F308881047BDE7801100203E
:100490008411002000A0000820A000080011002006
:1004A00000100240094A136849F2690099B21B0C16
:1004B00000FB01331360064B186844F2506182B2AE
:1004C000000C01FB0200186080B27047141100207C
:1004D0001011002010B500211022044600F09AFDF2
:1004E000034B03CB206061601868A06010BD00BFA3
:1004F0009075FF1FF0B5ADF5517D6EAC4FF4C47231
:1005000007460D462046002100F084FD01F04AFF19
:10051000264B4FF47A72B0FBF2F0186093E80700B4
:10052000022384E807000DF5ED702382FFF7D2FF68
:100530004FF611031E49238406A803F097FF2323D7
:1005400084F832310DF2EB2206AB0DF1380C1E4669
:1005500003CE664510605160334602F10802F6D1C1
:100560003188B37893700FAE118020463146012256
:1005700000F09CFD00230393AB7E029305F1190369
:10058000019380B20123CDE904600093E97E05A3C5
:10059000D3E90023384602F023FB0DF5517DF0BD71
:1005A000AFF300809E6AC421818A46EE8C11002040
:1005B0007C4400082DE9F0412C4C237ADAB08046C7
:1005C0000D465BBB27A9284600F096FE074600288B
:1005D00042D19DF89D60C82E3ED801464FF4A662D8
:1005E000204600F017FD4FF48073C4F8F8314FF443
:1005F0000073C4F80C334FF44073C4F8203432460F
:100600000DF19E0104F1090000F0F2FC26449DF872
:100610009C30777223720BB9EB7E2372812200210A
:1006200006AC27A800F0F6FC0122214627A800F01E
:10063000A9FE00230393AB7E029305F1190380B258
:1006400001932823CDE904400093E97E05A3D3E973
:100650000023404602F0C4FA5AB0BDE8F08100BF62
:10066000AFF3008026417272DF25D7B7D421002076
:10067000F0B5254E4FF48A7505FB0065F1B096F88C
:10068000D83085F8DC300024D822214685F8E840AF
:100690003AA800F0BFFC06F1090000F0B3FCD5F861
:1006A000E4308DF8F000C2B206AF06F109010DF199
:1006B000F100CDE93A3400F09BFC394601223AA81A
:1006C00000F096FE80B2CDE9047008230127CDE941
:1006D000023706F1D803019330230093317A0B4897
:1006E00007A3D3E9002302F07BFAA04206DD01F064
:1006F00059FEC5F8E000384671B0F0BD2046FBE772
:1007000078F6339F93CACD8DD4210020A4210020F8
:100710002DE9F0411D4D1E4E1E4F86B0284602F0B9
:100720008BFA034658B30024CDE90344ADF81440D6
:10073000027B8DF8142099684068029403AA03C2D2
:100740001B68DFF8548043F00043029301F02CFE55
:10075000821941F10003009402A9384601F0C0F863
:10076000A04205DD284602F06BFA88F80040D5E784
:1007700098F80030072B05D8013388F8003006B010
:10078000BDE8F081014802F05BFAF8E7A4210020FF
:1007900040420F00102700200927002070B50D46A9
:1007A00014461E4602F078F950B9022E10D1012CE1
:1007B0000ED112A3D3E90023C5E90023012007E0ED
:1007C000282C10D005D8012C09D0052C0FD00020E2
:1007D00070BD302CFBD10BA3D3E90023ECE70BA3B6
:1007E000D3E90023E8E70BA3D3E90023E4E70BA355
:1007F000D3E90023E0E700BFAFF30080401DA12054
:1008000026812A0B78F6339F93CACD8D9E6AC42128
:10081000818A46EE26417272DF25D7B7F017304A3B
:1008200039059E5638B505460E4C0021013500F0BD
:10083000B5FBA4F82C55B4F82C0500F097FB78B163
:10084000B4F82C0500F0A2FB014648B9B4F82C0519
:1008500000F0A4FBB4F82C350133A4F82C35EAE7FA
:1008600038BD00BFD421002010B50A4B0A4A1A60D7
:1008700003F5805393F870203AB9DC6E2CB1204612
:1008800000F0C4FE204601F001F8BDE81040034826
:1008900000F0BCBE10270020DC44000868370020B0
:1008A0002DE9F04F8FB000AF05460C4602F0F4F88A
:1008B00000284BD1237E022B1BD1E38A012B18D1B8
:1008C00001F070FD0646FFF7EDFD03464FF4C870DA
:1008D000DFF8D482B3FBF0F206F5167602FB103394
:1008E00016FA83F3C8F80030E37E33B9A74B002231
:1008F0001A703C37BD46BDE8F08F07F12401204651
:1009000000F0AEFC0028F4D107F11400FFF7E2FD7F
:1009100097F8264007F11401224607F1270003F05B
:1009200073FD0028E2D10F2C08D8984B1C70D8F822
:100930000030A3F51673C8F80030DAE797F82410F2
:100940000029D6D0284602F09FF8D2E7E38A282B68
:1009500033D010D8012B2BD0052BCAD1BFF34F8F2A
:100960008B498C4BCA6802F4E0621343CB60BFF33F
:100970004F8F00BFFDE7302BBBD1874EE17E327A2F
:100980009142B6D1607E3146002291F8DC5085421A
:1009900000F0AD800132042A01F58A71F5D1326888
:1009A00040F6B831FA328A4294BF32603160A0E733
:1009B00021462846FFF79EFD9BE721462846FFF784
:1009C000F9FD96E7B2F8EC507B6005F103094FEAB8
:1009D00099094FEA8902D11DC908A8EBC1039D46B8
:1009E000EB460021584600F015FB04F1EE012A46C3
:1009F0003144584600F0FCFA7B6813B9012000F03E
:100A0000ABFA96F8D20000F0B1FA044630B9307271
:100A100000F0CCFA204600F09FFAB0E0D6F8D420DF
:100A20003AB996F8D200B6F82C25824201D8FFF7E1
:100A3000F9FED6F8D4202A44944208D296F8D2007F
:100A4000B6F82C250130824201D8FFF7EBFE706822
:100A50005FFA89F2594600F0E5FA08B9C54679E02F
:100A6000726896F8D2002A447260D6F8D42005EB5A
:100A70000209C6F8D49000F079FA814509D396F8B6
:100A8000D220D6F8D4000132001B86F8D220C6F856
:100A9000D400FF2D0FD80024347200F087FA2046CE
:100AA00000F05AFA00F034FD3C4B188108B9FFF70A
:100AB000A1FCC5461DE7BB6896F8D9000AFB036296
:100AC000FB68D2F8E41082F8E83001F58061C2F8E2
:100AD000E030C2F8E410FFF7CBFDFFF719FE96F8FF
:100AE000D920013202F0030286F8D920B6E74FF48C
:100AF0008A7A0AFB02F505F1EA013144204600F04A
:100B0000ABFCF86000287FF4F4AE3544012285F890
:100B1000E82001F047FCD5F8E020D6ED007ADFEDC3
:100B2000206A801A192838BF192040F6B83290423E
:100B300028BF1046B8EE677A07EE900AF8EEE77A1B
:100B400067EEA67ADFED176AE7EE267AFCEEE77A23
:100B5000C6ED007A96F8D9307168BB600AFB03F4E1
:100B6000321992F8E8505DB1D2F8E4308B42E84691
:100B70003FF428AF002182F8E810C2F8E010C54623
:100B80007368064A9B0A01331381B2E69D21002057
:100B900000ED00E00400FA05D42100208C110020B3
:100BA000CDCCCC3D6666663FA0210020014B18707D
:100BB000704700BF9811002038B54FF00054144B17
:100BC00022689A4221D1607DF0B1124B124918700F
:100BD0001248237D03724FF48073C0F8F8314FF44C
:100BE0000073C0F80C3300254FF44073C0F8203474
:100BF000C0F8E450C922093000F0FAF9E022294691
:100C0000204600F007FA012038BD0020FCE700BFB5
:100C10009AAD44C59811002016000020D421002070
:100C200037B500F075FC194D1949288102230122BE
:100C300018486B7101F050FA00230193164B1749C5
:100C400000931748174B4FF4805201F0F5FE164BF6
:100C5000197811B1124801F017FF01F0A3FB044607
:100C6000FFF720FC4FF4C873B0FBF3F202FB130351
:100C700004F5167010FA83F00C4B186003F09EF820
:100C800008B10F232B8103B030BD00BF8C110020B1
:100C900040420F00102700209D0700089C110020F3
:100CA000A4210020A108000898110020A021002004
:100CB0002DE9F04F2DED028B0FF23829D9E900898B
:100CC000834C93B00BAE9FED7E8BFFF721FD814FE0
:100CD000DFF828A200230A93ADF834300B93736039
:100CE0004FF0000B5B468DED008B01250DF11D02D1
:100CF00007A938468DF81C508DF81DB001F09AF9FF
:100D00009DF81C30002B40F0A580204601F0C4FE69
:100D10000646002845D1704F01F044FB3B689842DD
:100D20003FD301F03FFB8246FFF7BCFB4FF4C87393
:100D3000B0FBF3F202FB13030AF5167010FA83F00E
:100D40003860664F97F800B0CBF1100ABBF1000F86
:100D500014BF33462B465FFA8AFA0EA88DF8283066
:100D6000FFF7B8FBBAF1060F28BF4FF0060A0EAB2B
:100D700003EB0B0152460DF1290000F039F90AABE3
:100D80000393182302930AF10102554BD2B2CDE925
:100D90000053049220464CA3D3E9002301F0C2FE85
:100DA0003E7001F0FFFA4F4A4F4D1368C31AB3F576
:100DB0007A7F2ED3106001F0F7FA02460B462046E8
:100DC00001F048FF204601F067FE10B32B7A474E32
:100DD000002B14BF03230223737101F0E3FA0EAF5B
:100DE0004FF47A730122B0FBF3F03946306030469D
:100DF00000F00EFA182302933D4B019380B240F2AB
:100E00005513CDE90370009342464B46204601F04E
:100E100089FE2B7A93B101F0C5FA002607464FF4FC
:100E20008A7A95F8D900304400F003000AFB005399
:100E300093F8E82092B30136042EF2D1C82002F0D4
:100E400075FC2B7A002B7FF43DAF13B0BDEC028B09
:100E5000BDE8F08FDAF8143083F00803CAF81430D4
:100E6000594610220EA800F0D5F80DF11E0308AA6D
:100E70000AA9384600F03AFE96E803000FAB83E873
:100E800003009DF834308DF844300A9B0E930EA970
:100E9000DDE90823204602F0B1F821E7D3F8E0208D
:100EA00042B12B68FA2B38BFFA23BA1A0533B2EBDA
:100EB000430FC0D3FFF7DCFB0028BCD1BEE700BF67
:100EC0000000000000000000401DA12026812A0B28
:100ED000A421002010270020A02100209D21002017
:100EE0009C21002004270020D42100208C11002008
:100EF00008270020F1C6A7C1D068080F00040048E9
:100F000008B5054800F090FEBDE80840034A0449D2
:100F1000002003F055BA00BF102700203038002011
:100F20006908000870B502F09DFD094E094D30803A
:100F3000002428683388834208D902F08FFD2B688B
:100F400004440133B4F5204F2B60F2D370BD00BFD1
:100F500024380020F837002002F036BE00F100608F
:100F6000920000F5204002F0B9BD0000054B1A6860
:100F7000054B1B889B1A834202D9104402F06EBDB8
:100F800000207047F837002024380020024B1B68EF
:100F9000184402F069BD00BFF8370020024B1B68FF
:100FA000184402F073BD00BFF8370020064991F8DD
:100FB000243033B10023086A81F824300822FFF777
:100FC000CDBF0120704700BFFC370020022802BFC0
:100FD000024B4FF400229A61704700BF00040048A2
:100FE000022802BF014B08229A61704700040048A2
:100FF00010B50023934203D0CC5CC4540133F9E70D
:1010000010BD000003460246D01A12F9011B002948
:10101000FAD1704702440346934202D003F8011B01
:10102000FAE770472DE9F8431F4D144695F8242040
:101030000746884652BBDFF870909CB395F8243081
:101040002BB92022FF2148462F62FFF7E3FF95F8D6
:101050002400C0F10802A24228BF2246D6B241466F
:10106000920005EB8000FFF7C3FF95F82430A41B26
:101070001E44F6B2082E17449044E4B285F824606A
:10108000DBD1FFF793FF0028D7D108E02B6A03EBF1
:1010900082038342CFD0FFF789FF0028CBD1002005
:1010A000BDE8F8830120FBE7FC3700202DE9F3477A
:1010B0000D46044600219046284640F27912FFF77B
:1010C000A9FF234620220021284601F039FF231DD5
:1010D00002222021284601F033FF631D0322222132
:1010E000284601F02DFFA31D03222521284601F0EB
:1010F00027FF04F1080310222821284601F020FFD1
:1011000004F1100308223821284601F019FF04F1E8
:10111000110308224021284601F012FF04F11203B6
:1011200008224821284601F00BFF04F11403202275
:101130005021284601F004FF04F1180340227021D9
:10114000284601F0FDFE04F120030822B0212846C4
:1011500001F0F6FE04F121030822B821284601F02F
:10116000EFFE04F12207C0263B46314608222846FE
:10117000083601F0E5FEB6F5A07F07F10107F3D1CF
:1011800094F832308DF8073031460DF1070308220C
:10119000284601F0D5FE002604F1330A9DF80730F9
:1011A0004FEAC6099E4209F5A47720D394F832315C
:1011B000502B28BF50238DF80730B8F1000F08D10D
:1011C00039460DF107030722284601F0B9FE09F25E
:1011D0004F17002604F233149DF807309E4207EBA8
:1011E000C6010DD30731C80802B0BDE8F0870AEB8D
:1011F000060308223946284601F0A2FE0136CDE753
:10120000A3190822284601F09BFE0136E4E70000FE
:1012100013B504460846002101602346C0F80310B8
:101220002022019001F08CFE0198231D0222202132
:1012300001F086FE0198631D0322222101F080FE49
:101240000198A31D0322252101F07AFE019804F1E3
:1012500008031022282101F073FE072002B010BD00
:10126000F7B5047F05460E462CB1838A122B02D9AE
:10127000012003B0F0BD002319460722009628463E
:1012800001F022FD731C0093012200230721284650
:1012900001F01AFDD4B9B31C00930522234608219E
:1012A000284601F011FD0D24B378102BE0D8374605
:1012B000B278BB1B934210D32B7FA88A0734E40873
:1012C000B3B9844294BF00200120D2E7AB8ADB008F
:1012D000083BDB08B3700824E6E7FB1C00932146BB
:1012E00000230822284601F0EFFC08340137DFE72D
:1012F000201A18BF0120BCE7F7B5047F05460E464B
:101300002CB1838ACA2B02D9012003B0F0BD00237F
:10131000194600960822284601F0D6FC731CD4B961
:101320000822009311462346284601F0CDFC1024E4
:101330007378C82BE8D8012372785F1C013B934275
:1013400010D32B7FA88A0734E408B3B9844294BF32
:1013500000200120D9E7AB8ADB00083BDB08737073
:101360000824E5E7F31900932146002308222846C4
:1013700001F0AAFC08343B46DEE7201A18BF012022
:10138000C3E70000F7B50D4604460021164628467F
:101390008122FFF73FFE234608220021284601F064
:1013A000CFFD94F901206378002AB8BF7F238DF820
:1013B00007309EB90DF1070307220821284601F0E6
:1013C000BFFD0F27002602349DF807309E4207EB31
:1013D000C60105D30731C80803B0F0BD0827F1E7FF
:1013E000A3190822284601F0ABFD0136ECE7000006
:1013F000F7B50E460546002114463046CE22FFF7CB
:1014000009FE2B4628220021304601F099FD2B7A57
:10141000C82B28BFC8238DF807308CB90DF10703FE
:1014200008222821304601F08BFD30242F469DF8FC
:1014300007207B1B934205D3E01DC00803B0F0BD1D
:101440002824F3E707F1090321460822304601F07A
:1014500077FD08340137EAE7F7B5047F05460E4605
:1014600034B1838AB3F5827F02D9012003B0F0BD85
:101470000096012310220021284601F025FCDCB94A
:10148000B31C0093092223461021284601F01CFCBE
:1014900019247388B3F5807FE7D837467288BB1B61
:1014A000934210D32B7FA88A0734E408B3B984424F
:1014B00094BF00200120D9E7AB8ADB00103BDB089A
:1014C00073801024E5E73B1D00932146002308228A
:1014D000284601F0F9FB08340137DFE7201A18BF6E
:1014E0000120C3E730B5094D0A4491420DD011F8EF
:1014F000013B5840082340F30004013B2C4013F00B
:10150000FF0384EA5000F6D1EFE730BD2083B8ED49
:10151000F7B5384A106851686B4603C36A463649C6
:101520003648082302F080FF0446002833D10A25FC
:10153000334A106851686B4603C36A4631492F48E5
:10154000082302F071FF0446002849D00369B3F56F
:10155000583F45D8B0F8661041F2F81291423FD199
:10156000294A024402F15C018B4239D35C3B234996
:1015700000209E1AFFF7B6FF3246074604F16401C9
:101580000020FFF7AFFFA3689F4229D1E36898428C
:1015900008BF002524E00369B3F5583F27D8418BE5
:1015A00041F2F812914220D1174A024402F110018F
:1015B0008B4218D3103B114900209D1AFFF792FF70
:1015C0002A46064604F118010020FFF78BFFA368A6
:1015D0009E4202D1E368984201D00D25A8E700257C
:1015E000284603B0F0BD1025A2E70C25A0E70B2587
:1015F0009EE700BFA0440008DC5F030000A00008D5
:10160000A9440008905F03000860FFF710B5037C51
:10161000044613B9006802F0EFFE204610BD00003A
:101620000023BFF35B8FC360BFF35B8FBFF35B8FA0
:101630008360BFF35B8F7047BFF35B8F0068BFF3BE
:101640005B8F704770B505460C30FFF7F5FF05F16D
:10165000080604463046FFF7EFFFA04206D93046A1
:101660006D68FFF7E9FF2544281A70BD3046FFF783
:10167000E3FF201AF9E7000070B50546406898B10D
:1016800005F10800FFF7D8FF05F10C0604463046C7
:10169000FFF7D2FF8442304694BF6D680025FFF704
:1016A000CBFF013C2C44201A70BD000038B50C461D
:1016B0000546FFF7C7FFA04210D305F10800FFF76A
:1016C000BBFF04446868B4FBF0F100FB1144BFF3B6
:1016D0005B8F0120AC60BFF35B8F38BD0020FCE75F
:1016E0002DE9F041144607460D46FFF7C5FF844239
:1016F00028BF0446D4B1B84658F80C6B4046FFF7F3
:101700009BFF3044286040467E68FFF795FF331A00
:101710009C4203D86C600120BDE8F0816B60A41B83
:101720003B68AB602044E8600220F5E72046F3E721
:1017300038B50C460546FFF79FFFA04210D305F1D0
:101740000C00FFF779FF04446868B4FBF0F100FB7C
:101750001144BFF35B8F0120EC60BFF35B8F38BD9A
:101760000020FCE72DE9FF41884669460746FFF760
:10177000B7FF6C4606B204EBC6060025B44209D09A
:101780006268206808EB0501FFF732FC63680834E3
:101790001D44F3E729463846FFF7CAFF284604B040
:1017A000BDE8F081F8B505460C300F46FFF744FF61
:1017B00005F1080604463046FFF73EFFA0423046DA
:1017C00088BF6C68FFF738FF201A386020B13046B8
:1017D0002C68FFF731FF2044F8BD000073B51446B4
:1017E00006460D46FFF72EFF844228BF04460190AF
:1017F000DCB101A93046FFF7D5FF019B33B9326850
:10180000C5E90233C5E9002401200CE09C4238BF41
:1018100001942860019868608442F5D93368AB6010
:10182000241AEC60022002B070BD2046FBE70000E5
:101830002DE9FF410F466946FFF7D0FF6C4600B225
:1018400004EBC0050026AC4209D0D4F8048054F85B
:10185000081BB8194246FFF7CBFB4644F3E7304676
:1018600004B0BDE8F081000038B50546FFF7E0FFA1
:10187000044601462846FFF719FF204638BD000000
:101880000121884238BF084602F0A0BD08B102F02D
:10189000B3BD704710B4026854681A4623465DF819
:1018A000044B184700207047002070477047000025
:1018B000002070470E20704700F5805090F8D80047
:1018C000C0F340007047000000F5805090F9E00040
:1018D0007047000000F58050C0F8DC100120704710
:1018E000F7B50C68BDF8207014F0005473D10D7B6F
:1018F000082D70D8302585F31188456AAE687601C9
:101900000CD4AC68240108D4AC6814F0805460D1C5
:1019100084F31188204603B0F0BD01240E6804F161
:10192000180C002EB8BFF6004FEA0C1CB4BF46F0EE
:101930000406760545F80C600E680FFA84FC16F074
:10194000804F18BF05EB0C1E05EB0C1C1EBFDEF80C
:10195000806146F00206CEF880610E7BCCF884618F
:1019600005EB04158E68C5F88C614E68C5F8886172
:10197000DCF8805145F00105CCF8805141F2780542
:1019800000EB441C660105EB4414AC440444CCE970
:1019900000230D46083401F10C0C55F804EB44F813
:1019A00004EB6545F9D12D882580841904F5805410
:1019B00007F0030594F8946026F00B06354384F88D
:1019C0009450002484F31188009700F03BFD01201F
:1019D000A1E70224A2E74FF0FF309CE713B500F522
:1019E00080540191E06EFFF747FE1F280AD9019944
:1019F000E06E2022FFF7B6FEA0F1200358425841C6
:101A000002B010BD0020FBE708B5302383F3118836
:101A100000F58050C06EFFF703FE002383F31188AA
:101A200008BD00000022026082814260826070472F
:101A300010B500220023C0E90023002304460381DF
:101A40000C30FFF7EFFF204610BD0000F0B5054653
:101A500000F580500C4690F8D83013F0040FC3F313
:101A6000800108BF114661F3820380F8D83005EB8E
:101A7000441303F58453103389B01B79D8074FEA18
:101A800044162FD582B319072ED46846FFF7D0FF2E
:101A900005EB441303F5845303AA03F10807186800
:101AA0005968144603C40833BB422246F7D118686C
:101AB00020609B88A380DDE90E23CDE9002301236C
:101AC000ADF808302B6869461B6C284698473544AA
:101AD00005F5845510352B791A075CBF43F00803D0
:101AE0002B7101E0002AF2D109B0F0BD2DE9F047D9
:101AF0009A4688B0074688469146302383F311887A
:101B000007F580546846FFF793FFE06EFFF79AFDF4
:101B10001F282AD9E06E20226946FFF7A5FE20285B
:101B200023D103AD444605AB2E4603CE9E42206032
:101B30006160354604F10804F6D130682060B3884E
:101B4000A380DDE90023C9E90023BDF80830AAF825
:101B50000030002383F3118853464A4641463846F5
:101B600008B0BDE8F04700F02BBC002080F31188DE
:101B700008B0BDE8F08700002DE9F84F18220446B0
:101B80000F4604300021FFF745FA2046234B40F86A
:101B9000283BFFF747FF04F13800FFF749FF04F146
:101BA000580804F582554646183530462036FFF76A
:101BB0003FFFAE42F9D104F580554FF480534FF00A
:101BC0000009C5E91739C5F858800123EE6604F508
:101BD000875804F58456C5F8649085F8683085F810
:101BE0007030183608F118084FF0000A4FF0000B5B
:101BF00046E908ABA6F11800FFF714FF203646F8B7
:101C0000289C4645F4D185F8E07017B1044800F0EF
:101C1000C3FB044B63622046BDE8F88FDC44000838
:101C2000B44400080064004010B5044B1978044621
:101C30004A1C1A70FFF7A0FF204610BD2C38002068
:101C40002DE9F047002950D0294B2A4FB7FBF1F579
:101C500099428CBF0A231123581EB5FBF3FC03FBEA
:101C60001C53C4B22BB102280346F5D80020BDE8AE
:101C7000F0870CF1FF36B6F5806FF7D2C4EBC40ED7
:101C80000EF103034FEAE309C3F3C703A4EB030810
:101C900009F1010A4FF47A755FFA88F009FB0555DE
:101CA0005AFA88F8B5FBF8F5B5F5617FC1BF0EF1BA
:101CB000FF33C3F3C703E01AC0B25C1C50FA84F4CC
:101CC0000CFB04F4B7FBF4F4A142CFD1013BDBB22F
:101CD0000F2BCBD80138C0B20728C7D8002110710C
:101CE00016809170D3700120C1E70846BFE700BF9E
:101CF0003F420F0000B4C40470B505460E464FF4D1
:101D00007A746B6A5B6803F00103B34207D04FF447
:101D10007A7001F00BFD013CF3D1204670BD01202B
:101D2000FCE7000070B5426A936913F0700F17D09A
:101D300000230C4D936141F2900400EB43122244C6
:101D400011794E0709D5890707D5416A55F82360EF
:101D50008E60117941F0040111710133032BECD134
:101D600070BD00BFC844000873B51D46436A1646DF
:101D70009A68D207044609D59A6801219960C2F38E
:101D80004002CDE900650021FFF760FE636A9A68B2
:101D9000D1050BD59A684FF480719960C2F3402247
:101DA000CDE9006501212046FFF750FE636A9A687D
:101DB000D2030BD59A684FF480319960C2F3404248
:101DC000CDE9006502212046FFF740FE04F580536F
:101DD000D3F8DC0010B103681B699847204602B0B5
:101DE000BDE87040FFF79EBFF8B50446466A00297B
:101DF00077D106F10C073868800775D006EB01151E
:101E00003868D5F8B00110F0040FD5F8B0011ABF4A
:101E1000C00840F00040400DA062D5F8B0C11CF0F1
:101E2000020F1CBF40F08040A062D5F8B40106EB61
:101E3000011100F00F0084F83400D1F8B80184F8E3
:101E40002C00D1F8B801000A84F82D00D1F8B801AF
:101E5000000C84F82E00D1F8B801000E84F82F0091
:101E6000D1F8BC0184F83000D1F8BC01000A84F834
:101E70003100D1F8BC01000C84F83200D1F8BC115B
:101E8000090E84F833103821396004F1440004F15C
:101E9000280104F1340551F8046B40F8046BA942A1
:101EA000F9D109880180C4E90E2321460023A4F852
:101EB000403051F8383B20461B6C984704F580535E
:101EC00093F8D820D3F8DC0042F0040283F8D8203D
:101ED00010B103681B6998472046BDE8F840FFF73A
:101EE00021BF06F1100786E7F8BD000010B50446D3
:101EF00000F05AFA02460B4652EA030102D0013AB8
:101F000063F100030449086820B12146BDE8104090
:101F1000FFF76ABF10BD00BF28380020F0B53021A0
:101F200081F31188DFF848E000F58351183100246F
:101F300041F2900C00EB441565442E7977070ED4DE
:101F4000F6060CD5D1E9007697429E4107D2466A43
:101F50005EF82470B7602E7946F004062E710134C5
:101F6000032C01F12001E5D1002383F31188F0BD9A
:101F7000C844000808B5302383F31188FFF7D2FE68
:101F8000002383F3118808BD2DE9F041436A04461C
:101F9000986800F0E050B0F1E05F0E4622D0F8B152
:101FA000302383F31188002504F5845741F290080B
:101FB00004EB451343441B791A0706D50135032D5D
:101FC00007F12007F4D1012007E05B07F6D439467A
:101FD000304600F08BFA0028F0D1002383F31188FB
:101FE000BDE8F0810120FBE708B5302383F31188B9
:101FF00000F58050C06EFFF725FB002383F31188A6
:1020000043090CBF0120002008BD0000F8B51D46A3
:10201000002313700F4606461446FFF7E5FF80F0D5
:102020000100387025B129463046FFF7ADFF20701A
:10203000F8BD00002DE9B8410C4615461F46804604
:1020400000F0B2F90B462178024609B9287850B160
:102050004046FFF763FFFFF78DFF3B462A462146C8
:10206000FFF7D4FF0120BDE8B881000070B530262D
:1020700086F31188174B9A6D42F000729A659A6B3D
:1020800042F000729A639A6B22F000729A63002306
:1020900083F3118800F5805494F8D83013F00105CB
:1020A00016D1A9B186F311880321132001F03AFA61
:1020B0000321142001F036FA0321152001F032FA31
:1020C00094F8D83043F0010384F8D83085F31188B0
:1020D00070BD00BF001002402DE9F04700F58055AB
:1020E00088B095F8E030012B04468846164600F289
:1020F0008280824F57F823200AB947F82300D7F887
:1021000000A0C4F81C8084F82060BAF1000F64D0ED
:1021100095F8E030012B70D001212046FFF7A6FF93
:10212000302383F31188626A136823F0020313607B
:10213000626A136843F001031360636A00275F61FA
:1021400087F3118801212046FFF7D6FD002800F013
:102150009580E86EFFF764FA04F58359BA4609F1F1
:102160001809202200216846FEF754FF02A8FFF755
:1021700059FCCDF818A06A4609EB07030DF1180EBB
:102180009446BCE80300F44518605960624603F1C8
:102190000803F5D1DCF80000186020379CF8042013
:1021A0001A71602FDDD195F8D8306FF382030027C4
:1021B00085F8D8306A4641462046ADF80070ADF843
:1021C00002708DF80470FFF73BFD636A48BB4FF463
:1021D00000421A6008B0BDE8F08741F2E800FFF75E
:1021E0004FFB814610B15146FFF7C6FCC7F800907F
:1021F000B9F1000F8CD10020ECE7386803681B6B45
:1022000098470146002887D13868FFF72FFF3868C4
:10221000036832465B684146984700287FF47CAFEC
:10222000E9E761221A609DF802309DF803201B0641
:10223000120402F4702203F040731343BDF800202F
:10224000C2F3090213439DF804201205022E02F482
:10225000E0020CBF4FF0004100211343626A0B43C0
:10226000D361636A13225A61626A136823F001031F
:10227000136039462046FFF73FFD08B9636AA6E7B9
:1022800095F8E03093BB616AD1F8002242F0010278
:10229000C1F80022616AD1F8002222F47C5222F0B7
:1022A0000E02C1F80022616AD1F8002242F4606295
:1022B000C1F80022626AC2F81432626AC2F80432BB
:1022C000626A41F6FF71C2F80C12626AC2F84032CB
:1022D000626AC2F84432636A0122C3F81C22626A4D
:1022E000D2F8003223F00103C2F8003295F8D8305A
:1022F00043F0020385F8D8306CE700BF283800208F
:1023000008B500F051F850EA0103024602D0421E1F
:1023100061F10001044B186810B10B46FFF724FD72
:10232000BDE8084001F0C0B82838002008B50020FA
:10233000FFF7DCFDBDE8084001F0B6B808B50120A4
:10234000FFF7D4FDBDE8084001F0AEB800B59BB082
:10235000EFF3098168226846FEF74AFEEFF3058332
:10236000014B9B6BFEE700BF00ED00E008B5FFF7F7
:10237000EDFF000000B59BB0EFF3098168226846CD
:10238000FEF736FEEFF30583014B5B6BFEE700BF04
:1023900000ED00E0FEE700000FB408B5029801F080
:1023A00075F9FEE701F050BC01F032BC0139C9B249
:1023B00002299EBF00EBC1000023C0E90133704732
:1023C0002DE9F8431E461B885B070546884618D44E
:1023D000044600F118094C4513D063686BB12B68B3
:1023E0002846DB6B98473388A768C1B243F00403E3
:1023F00060684246B8470834EDE7A368002BEED189
:10240000F9E70120BDE8F88373B56C4684E806005F
:10241000014600224E68D5B26EB98E685EB900EBF7
:10242000C200021D94E80300013582E803001D701C
:10243000012002B070BD0132032A01F10801E9D187
:102440000020F6E72DE9F04F2DED028B89B09FEDCE
:10245000258BBDF8508004468B46054600F11809CF
:10246000002708F0040AA94536D06B680BB9AB68A1
:1024700063B1BAF1000F0BD123682046DB6B98479C
:102480004346C1B25A46D5E90106B0470835EAE7E6
:10249000002FFBD18DED008BADF808705B4603AAD1
:1024A0000BF1080C18685968174603C708336345D1
:1024B0003A46F7D1186838609B88BB80FFF774FFF5
:1024C0000423ADF808302368CDE900011B6C694690
:1024D000204698470127D9E7012009B0BDEC028BBF
:1024E000BDE8F08F000000000000000030B5036878
:1024F0000968DD0FB5EBD17F23F0604421F0604225
:102500004FEAD1700BD0002BB8BFA40C0029B8BF84
:10251000920C944202D034BF0120002030BD94427E
:1025200005D1C1F38070C3F380738342F6D1944226
:102530002CBF00200120F1E72DE9F041456A15B9D3
:102540004162BDE8F0814B6823F06047C3F38A46DF
:102550004FEAD37EC3F3807816EA230638BF3E469F
:10256000AC462B465A68BEEBD27F22F060440AD0BC
:10257000002A18DAA40CB44217D19D420FD10D6085
:10258000DEE71346EEE7A74207D102F08044C2F32C
:10259000807242450BD054B1EFE708D2EDE7CCF89A
:1025A00000100B60CDE7B44201D0B442E5D81A6800
:1025B0009C46002AE5D11960C3E700002DE9F047E9
:1025C000089D01F007044FEAD508224405F00705ED
:1025D00000EBD1004FF47F49944201D1BDE8F08770
:1025E00004F0070705F0070A57453E4638BF564630
:1025F000C6F10806111B8E4228BF0E46E10808EB03
:10260000D50E415C13F80EC0B94029FA06F721FA3D
:102610000AF1FFB28CEA010147FA0AF739408CEA65
:10262000010C03F80EC034443544D5E780EA01209C
:10263000082341F2210201B24000002980B203F1D7
:10264000FF33B8BF504013F0FF03F4D170470000D0
:1026500038B50C468D18A54200D138BD14F8011BC1
:10266000FFF7E4FFF7E7000042684AB113684360F0
:102670004389818901339BB29942438138BF838169
:102680001046704770B588B0202204460D46684653
:102690000021FEF7BFFC20460495FFF7E5FF024648
:1026A00058B16B46054608AE1C4603CCB4422860C0
:1026B0006960234605F10805F6D1104608B070BDE3
:1026C000082817D909280CD00A280CD00B280CD0C0
:1026D0000C280CD00D280CD00E2814BF4020302020
:1026E00070470C2070471020704714207047182046
:1026F0007047202070470000082817D90C280CD9F3
:1027000010280CD914280CD918280CD920280CD939
:1027100030288CBF0F200E207047092070470A20F8
:1027200070470B2070470C2070470D207047000049
:102730002DE9F843078C072F04461ED9D0E90298EB
:1027400000254FF6FF73C5F12006A5F1200029FAF8
:1027500005F108FA06F628FA00F031430143C9B240
:102760001846FFF763FF0835402D0346EBD1E169BA
:102770003A46BDE8F843FFF76BBF4FF6FF70BDE880
:10278000F883000010B54B6823B9CA8A63F30902C5
:10279000CA8210BD04691A681C600361C38A013BC8
:1027A000C3824A60EFE700002DE9F84F1D46CB8A4F
:1027B0000F46C3F309010529814692460B4630D0E6
:1027C0000020AAB207F11A049EB2042E1FFA80F864
:1027D0000FD8904503F1010306D3FB8A0A4462F344
:1027E0000903FB8201201AE01AF80060E654013068
:1027F000EAE79045F1D2A1F1050B1C237C68BBFBF5
:10280000F3F203FB12BB1FFA8BF6002C45D14846AE
:10281000FFF72AFF044638B978606FF00200BDE880
:10282000F88F4FF00008E6E7002606607860ADB24A
:102830004FF0000B454510D90AEB0803221D13F891
:10284000011B9155B1B208F101081B291FFA88F844
:102850002BD0454506F10106F1D8FB8AC3F30902E6
:10286000154465F30903BCE7013292B21C462368A4
:10287000002BF9D16B1F0B441C21B3FBF1F3013387
:102880009BB29A42D3D2BBF1000FD0D14846FFF79A
:10289000EBFE20B9C4F800B0BFE70122E7E7C0F8BB
:1028A00000B05E4620600446C1E74545D5D948469C
:1028B000FFF7DAFE08B92060AFE7C0F800B00026E5
:1028C00020600446B6E700002DE9F04F2DED028BA5
:1028D0001C4683B05B69019207468846002B00F0D6
:1028E000A780238C2BB1E269002A00F0A180072B7E
:1028F00035D807F10C00FFF7B7FE054638B96FF081
:102900000205284603B0BDEC028BBDE8F08F14220F
:102910000021FEF77FFB228CE16905F10800FEF73C
:1029200067FB208C013080B2FFF7E6FEFFF7C8FEA0
:10293000013880B22084013028746369228C1B78AE
:102940002A4403F01F0363F03F0348F00041137271
:10295000384669602946FFF7EFFD0125D1E70233CC
:102960009BB20722C18A0633B3FBF2F3828A521A62
:102970009BB292B29342C2D800F10C034FF000090F
:1029800008EE103A4FF0800A4E464D4618EE100AF7
:10299000FFF76AFE83460028B1D014220021FEF71B
:1029A00039FB002E3AD1019BABF8083002220BF123
:1029B000080E1FFA82FC0CF10100BCF1060F218CFD
:1029C00080B201D88E422BD3FFF796FEFFF778FE38
:1029D00062691278013802F01F028E4208BF4FF080
:1029E000400A42EA49121BFA80F14AEA020A01301F
:1029F00048F0004281F808A08BF81000CBF80420C2
:102A000059463846FFF798FD238C0135B3422DB265
:102A100089F001094FF0000AB8D172E70022C6E739
:102A2000E169895D0EF802100136B6B20132C0E7E5
:102A30006FF0010565E70000F8B515460E46302237
:102A4000002104461F46FEF7E5FA069B6360B5F5D4
:102A5000001F079BA76034BF6A094FF6FF72A3628D
:102A600097B2E66104F1100000239A4206D80023D1
:102A70000360A782E3822383E360F8BD066001332D
:102A800030462036F1E7000003781BB94BB2002B2B
:102A9000C8BF01707047000000787047F8B50C4659
:102AA000C969074611B9238C002B37D1257E1F2D0C
:102AB00034D8387828BB228C072A2CD8268A36F0BE
:102AC00003032BD14FF6FF70FFF7C2FD20F001008A
:102AD0003102400441EA0561400C41EA40254FF6CD
:102AE000FF72234629463846FFF7EEFE002807DD31
:102AF000626913780133DBB21F2B88BF0023137088
:102B0000F8BD218A2D0645EA012505432046FFF739
:102B10000FFE0246E5E76FF00300F1E76FF00100FA
:102B2000EEE7000070B58AB0044616460021282260
:102B300068461D46FEF76EFABDF83830ADF8103025
:102B40000F9B05939DF840308DF81830119B07932B
:102B50006946BDF84830ADF820302046CDE9026521
:102B6000FFF79CFF0AB070BD2DE9F041D36905461F
:102B70000C4616460BB9138C5BBB377E1F2F28D82B
:102B800095F80080B8F1000F26D03046FFF7D0FD51
:102B90003378210241EAC33141EA0801338A41EA2C
:102BA000076141EA03410246334641F0800128466D
:102BB000FFF78AFE00280ADD3378012B07D17269FE
:102BC00013780133DBB21F2B88BF00231370BDE8DD
:102BD000F0816FF00100FAE76FF00300F7E7000003
:102BE000F0B58BB004460D461746002128226846F2
:102BF0001E46FEF70FFA9DF84C305A1E53425341C1
:102C00008DF800309DF84030ADF81030119B0593E1
:102C10009DF848308DF81830149B07936A46BDF82C
:102C20005430ADF8203029462046CDE90276FFF732
:102C30009BFF0BB0F0BD0000406A00B1043070474C
:102C4000436A1A68426202691A600361C38A013BDF
:102C5000C38270472DE9F041D0F82080194E144608
:102C60001D464146002709B9BDE8F081D1E902239C
:102C7000A21A65EB0303964277EB03031ED2036AA5
:102C80008B420DD1FFF77EFD036A1B680362036967
:102C90000B60C38A0161016A013BC3828846E2E797
:102CA000FFF770FD0B68C8F8003003690B60C38A3A
:102CB0000161013BC382D8F80010D4E78846096857
:102CC000D1E700BF80841E002DE9F04F8BB00D4688
:102CD000DDF8509014469B468046002800F019818C
:102CE000B9F1000F00F01581531E3F2B00F2118146
:102CF000012A03D1BBF1000F40F00B810023CDE985
:102D00000833B8F81430B5EBC30F4FEAC30703D349
:102D100000200BB0BDE8F08F2B199F42D8F80C3083
:102D20003ABF7F1BFFB227461BB9D8F81030002BE3
:102D30007AD0272D4ED8C5F12806B7424FF00003B0
:102D40002CBFF6B23E4600932946D8F8080008ABDF
:102D50003246FFF733FCA7EB060A35445FFA8AFADE
:102D6000B8F8143003F10053053BDB000493D8F8A6
:102D70000C3003932821039B13B1BAF1000F2CD11F
:102D8000D8F8100040B1BAF1000F05D0009608AB9A
:102D90005246691AFFF712FC38B2002FB8D0660706
:102DA0000AD00AAB03EBD401624211F8083C02F0EE
:102DB0000702134101F8083C082C3CD9102C40F2C2
:102DC000B580202C40F2B780BBF1000F00F09C8052
:102DD000082334E0BA460026C2E7049BE02B28BF54
:102DE000E02306930B44AB42059314D95A1B039876
:102DF0000096924534BF5246D2B2691A08AB0430ED
:102E00000792FFF7DBFB079A1644AAEB020A154468
:102E1000F6B25FFA8AFA049B069A05999B1A049304
:102E2000039B1B680393A6E70093D8F8080008AB40
:102E30003A462946AEE7BBF1000F13D00123B4EBAD
:102E4000C30F6CD0082C12D89DF82030621E23FAD4
:102E500002F2D50706D54FF0FF3202FA04F42343FD
:102E60008DF820309DF8203089F8003051E7102C83
:102E700012D8BDF82030621E23FA02F2D10706D51F
:102E80004FF0FF3202FA04F42343ADF82030BDF8CE
:102E90002030A9F800303CE7202C0FD80899631E99
:102EA00021FA03F3DA0705D54FF0FF3202FA04F4F2
:102EB0000C430894089BC9F800302AE7402C2BD01B
:102EC000DDE90865611EC4F12102A4F1210326FA9F
:102ED00001F105FA02F225FA03F311431943CB0776
:102EE00012D50122A4F12003C4F1200102FA03F358
:102EF00022FA01F1A240524243EA010363EB430389
:102F000032432B43CDE90823DDE90823C9E9002337
:102F1000FFE66FF00100FCE66FF00800F9E6082C10
:102F2000A0D9102CB3D9202CEED8C3E7BBF1000FE9
:102F3000ADD0022383E7BBF1000FBBD004237EE7B3
:102F400030B5012A144638BF0124402C85B028BF73
:102F500040240025012ACDE9025518D81B788DF8A8
:102F6000083063070AD004AB03EBD405624215F8BE
:102F7000083C02F00702934005F8083C0091034624
:102F80002246002102A8FFF719FB05B030BD082A30
:102F9000E4D9102A03D81B88ADF80830E1E7202ACD
:102FA0008DBFD3E900231B680293CDE90223D8E744
:102FB00010B5CB681BB98B600B618B8210BD0469A7
:102FC0001A681C600361C38A013BC382CA60F0E7D0
:102FD00003064CBFC0F3C0300220704708B502465C
:102FE000FFF7F6FF022806D15306C2F30F2001D1E6
:102FF00000F0030008BDC2F30740FBE72DE9F04FE6
:1030000093B0CDE903230A6804461046FFF7E0FFBA
:10301000022814BFC2F306260026002A0D46824667
:1030200080F2F78112F0C04940F0F381097B00295A
:1030300000F0EF81022803D02378B34240F0EC8106
:10304000C2F304630693104602F07F030593FFF773
:10305000C5FF059B29444FEA834848EA0A4848EAE5
:103060004668CE7800230022CDE90823F309834681
:1030700048EA0008029367D0059B00930246676800
:10308000534608A92046B847002800F0C881276A9F
:103090004FB9414604F10C00FFF7F4FA074690B926
:1030A0006FF0020054E03B6998450DD03F68002F57
:1030B000F9D1414604F10C00FFF7E4FA0746002875
:1030C000EED0236A3B60276297F817C006F01F080E
:1030D000CCF3840CACEB08001FFA80FE0028B8BFCC
:1030E0000EF12000A8EB0C031FFA83FED7E90221A2
:1030F000B8BF00B2002B0793BEBF0EF120031BB276
:10310000079352EA010338D0039BDFF824E39A1AAD
:10311000049B4FF0000C63EB010196457CEB01032F
:103120002BD36B7B97F81AE0734519D1029B002BC8
:1031300078D0012821DC7868F8B9DFF8F0C294452E
:1031400070EB010316D337E0276A27B96FF00C0044
:1031500013B0BDE8F08F3B699845B5D03F68F4E700
:10316000B24890427CEB010301D30020F0E7029BC0
:10317000002BFAD0079B0F2B17DCFA7DB30002F06F
:10318000030203F07C031343FB7539462046FFF727
:10319000F9FA6B7BBB76029B3BB9FB7DC3F38402E0
:1031A000013262F38603FB75D0E76A7BBB7E9A42ED
:1031B000DBD1029B002B35D0B309022B32D0039B0D
:1031C000BB60049BFB60142200210DA8FDF722FFC9
:1031D000039B0A93049B0B932B1D0C932B7BADF845
:1031E0003EB0013BDBB2ADF83C30069B8DF842307F
:1031F000059B8DF8433094F82C308DF840A083F077
:1032000001038DF844308DF84180A3680AA9204657
:103210009847FB7DC3F38403013303F01F039B0234
:10322000FB82A2E7FB7DC6F34012B2EBD31F40F056
:10323000F980C3F38403434540F0FC80029A2B7B62
:10324000B609002A52D016F0010661D1032B40F2D4
:10325000F480039BBB60049BFB60FB8A66F309035D
:10326000FB822B7BAE1D033BDBB23246394604F1B9
:103270000C00FFF799FA00280CDA39462046FFF7D0
:1032800081FAFB7DC3F38403013303F01F039B0228
:10329000FB8205E7DDE90884AB883B834FF6FF73CB
:1032A000C9F12000A9F1200228FA09F104FA00F07E
:1032B000014324FA02F211431846C9B2FFF7B6F9E6
:1032C00009F10809B9F1400F0346E9D1B8822A7B18
:1032D000033AD2B23146FFF7BBF9FB7DB882DA433D
:1032E000C2F3C01262F3C713FB753EE786B92E1D09
:1032F000013BDBB23246394604F10C00FFF754FAC9
:103300000028BADB2A7BB88A013AD2B23146E2E71A
:10331000F98AC1F30901013B0429DAB25BD8281DFF
:10332000002307F11B069A4208D910F801CB06F8D2
:1033300001C0013101330529DBB2F4D103990A91AF
:1033400004990B91934207F11B010C9138BF043390
:1033500079680D9134BF55FA83F300230E93FB8AED
:10336000ADF83EB0C3F309031A44069B8DF8423012
:10337000059B8DF8433094F82C30ADF83C2083F059
:1033800001038DF8443000238DF840A08DF8418072
:103390007B602A7BB88A013A291DFFF759F93B8BDC
:1033A000B882834203D1A3680AA9204698472046E1
:1033B0000AA9FFF7FDFDFB7DBA8AC3F3840301333D
:1033C00003F01F039B02FB823B8B9A420CBF002041
:1033D0006FF01000BCE67B68002BAFD0052001E049
:1033E0001C3033461E68002EFAD1091A081D2E1D06
:1033F000184401EB090CBCF11B0F5FFA89F39DD84F
:103400009A429BD916F8013B00F8013B09F10109EA
:10341000EFE76FF009009BE66FF00A0098E66FF0A7
:103420000B0095E66FF00D0092E600BF40420F00E2
:1034300080841E006FF00E008AE66FF00F0087E6B2
:10344000EFF3098305494A6B22F001024A636833AE
:1034500083F30988002383F31188704700EF00E0AD
:10346000302080F3118862B60C4B0D4AD96821F4E4
:10347000E0610904090C0A43DA60D3F8FC20094929
:1034800042F08072C3F8FC200A6842F001020A6030
:103490002022DA7783F82200704700BF00ED00E0B9
:1034A0000003FA05001000E010B5302383F3118803
:1034B0000E4B5B6813F4006314D0F1EE103AEFF397
:1034C0000984683C4FF08073E361094BDB6B236632
:1034D00084F3098800F0A4F810B1064BA36110BD75
:1034E000054BFBE783F31188F9E700BF00ED00E02F
:1034F00000EF00E0FF020008020300084FF0E023A5
:10350000002258684FF0FF31930003F1604303F548
:10351000614301329042C3F88010C3F88011F3D2A6
:103520007047000000F1604303F561430901C9B22F
:1035300083F80013012200F01F039A4043099B0007
:1035400003F1604303F56143C3F880211A607047BB
:1035500000230375826803691B6899689142FBD256
:103560005A6803604260106058607047002303751A
:10357000826803691B6899689142FBD85A680360A6
:10358000426010605860704708B50846302383F3E6
:1035900011880B7D032B05D0042B0DD02BB983F3A1
:1035A000118808BD8B6900221A604FF0FF338361D8
:1035B000FFF7CEFF0023F2E7D1E9003213605A6033
:1035C000F3E70000FFF7C4BF054BD968087518681A
:1035D00002681A60536001220275D860FCF77ABE57
:1035E0003838002030B50C4BDD684B1C87B00446E2
:1035F0000FD02B46094A684600F02AF92046FFF70B
:10360000E3FF009B13B1684600F02CF9A86907B0EE
:1036100030BDFFF7D9FFF9E73838002089350008B9
:10362000044B1A68DB6890689B68984294BF00203E
:103630000120704738380020084B10B51C68D86846
:1036400022681A60536001222275DC60FFF78EFF4A
:1036500001462046BDE81040FCF73CBE383800204B
:1036600038B5074C074908480123002523706560D9
:1036700000F0EAFB0223237085F3118838BD00BFF8
:10368000603A0020244500083838002008B572B69A
:10369000044B186500F0ACFA00F058FB024B032213
:1036A0001A70FEE738380020603A002000F010B9A8
:1036B0008B60022308618B82084670478368A3F100
:1036C000840243F8142C026943F8442C426943F8FD
:1036D000402C094A43F8242CC26843F8182C0222D3
:1036E00003F80C2C002203F80B2C044A43F8102C8E
:1036F000A3F12000704700BFED0200083838002019
:1037000008B5FFF7DBFFBDE80840FFF75BBF00002F
:10371000024BDB6898610F20FFF756BF3838002056
:10372000302383F31188FFF7F3BF000008B501468B
:10373000302383F311880820FFF754FF002383F31D
:10374000118808BD10B503689C68A2420CD85C685B
:103750008A600B604C602160596099688A1A9A608F
:103760004FF0FF33836010BD1B68121BECE70000B5
:103770000A2938BF0A2170B504460D460A26601989
:1037800000F05CFB00F048FB041BA54203D8751C4D
:103790002E460446F3E70A2E04D9BDE87040012006
:1037A00000F092BB70BD0000F8B5144B0D46D96116
:1037B00003F1100141600A2A1969826038BF0A22A8
:1037C000016048601861A818144600F029FB0A2718
:1037D00000F022FB431BA342064606D37C1C28199B
:1037E00000F02CFB27463546F2E70A2F04D9BDE846
:1037F000F840012000F068BBF8BD00BF3838002059
:10380000F8B506460D4600F007FB0F4A134653F87D
:10381000107F9F4206D12A4601463046BDE8F84057
:10382000FFF7C2BFD169BB68441A2C1928BF2C46C8
:10383000A34202D92946FFF79BFF2246314603489F
:10384000BDE8F840FFF77EBF383800204838002038
:1038500010B4C0E9032300235DF8044B4361FFF774
:10386000CFBF000010B5194C236998420DD0D0E9A4
:103870000032816813605A609A680A449A60002393
:1038800003604FF0FF33A36110BD2346026843F885
:10389000102F53600022026022699A4203D1BDE8D2
:1038A000104000F0C5BA936881680B44936000F043
:1038B000B3FA2269E1699268441AA242E4D9114438
:1038C000BDE81040091AFFF753BF00BF3838002089
:1038D0002DE9F047DFF8BC8008F110072C4ED8F82E
:1038E000105000F099FAD8F81C40AA68031B9A42BD
:1038F0003ED81444D5E900324FF00009C8F81C4006
:1039000013605A60C5F80090D8F81030B34201D166
:1039100000F08EFA89F31188D5E9033128469847DB
:10392000302383F311886B69002BD8D000F074FA30
:103930006A69A0EB04094A4582460DD2022000F0D4
:10394000C3FA0022D8F81030B34208D151462846B5
:10395000BDE8F047FFF728BF121A2244F2E712EB46
:10396000090938BF4A4629463846FFF7EBFEB5E756
:10397000D8F81030B34208D01444211AC8F81C00FB
:10398000A960BDE8F047FFF7F3BEBDE8F08700BFD0
:10399000483800203838002038B500F03DFA054A94
:1039A000D2E90845031B181945F10001C2E90801D5
:1039B00038BD00BF3838002000207047FEE7000007
:1039C000704700004FF0FF3070470000BFF34F8F8B
:1039D000024A1369DB03FCD4704700BF0020024099
:1039E00008B5094B1B7873B9FFF7F0FF074B5A690D
:1039F000002ABFBF064A9A6002F188329A601A68AC
:103A000022F480621A6008BD783A0020002002404B
:103A10002301674508B50B4B1B7893B9FFF7D6FF19
:103A2000094B5A6942F000425A611A6842F48052C6
:103A30001A601A6822F480521A601A6842F480628E
:103A40001A6008BD783A0020002002407F289ABF03
:103A500000F58030C0020020704700004FF4006085
:103A600070470000802070477F2808B50BD8FFF70B
:103A7000EDFF00F500630268013204D10430834297
:103A8000F9D1012008BD0020FCE700007F2810B517
:103A900004461FD8FFF79AFFFFF7A2FF0E4BF32251
:103AA0001A6102225A615A6942EAC0025A615A698D
:103AB00042F480325A61FFF789FF4FF40061FFF74B
:103AC000C5FF00F03FF9FFF7A5FF2046BDE8104015
:103AD000FFF7CABF002010BD002002402DE9F843C7
:103AE00040EA020313F00703144606D0304B40F2BD
:103AF00082321A600020BDE8F88385182D4A95426D
:103B00000CD92B4A40F287311160F3E7031D1B6883
:103B10004A68934208D1083C08300831072C14D970
:103B200002680B689A42F1D0FFF75AFFFFF74EFF89
:103B3000214E08314FF001084FF00009012CA1F18E
:103B4000080706D8FFF766FF01E0002CECD1012042
:103B5000D1E7C6F81480054651F8083C45F8043B07
:103B600051F8043C4360FFF731FF336943F0010330
:103B70003361C6F81490026851F8083C9A420CD0A0
:103B80000B4B40F2AF321A600C4B18600C4B1C60B0
:103B90000C4B1F60FFF73EFFACE72D6851F8043C6B
:103BA0009D4201F10801EBD1083C0830C6E700BF97
:103BB000743A00200000040800200240683A002007
:103BC000703A00206C3A0020084908B50B7828B1FB
:103BD0001BB9FFF705FF01230B7008BD002BFCD0BC
:103BE000BDE808400870FFF715BF00BF783A002015
:103BF00002484FF47F4100F0A7B800BF0001002049
:103C00000846114600F0E2BB084600F0F5BB000094
:103C100038B5EFF311859DB9EFF30584C4F30804BB
:103C2000302334B183F31188FFF7B6FE85F3118892
:103C300038BD83F31188FFF7AFFE84F3118838BDD8
:103C4000BDE83840FFF7A8BE38B5FFF7E1FF114CDB
:103C5000114AC00840EA4170A0FB025EC908A0FBFF
:103C6000040C1CEB050CA1FB04404FF000035B416E
:103C7000A1FB02121CEB040C43EB000011EB0E0144
:103C800042F10002411842F10000090941EA0070C6
:103C900038BD00BFCFF753E3A59BC42010B5024445
:103CA000064BD2B2904200D110BD441C00B253F872
:103CB000200041F8040BE0B2F4E700BF50280040B8
:103CC000114B30B5D3F89040240409D4D3F8904078
:103CD000C3F89040D3F8904044F40044C3F89040B7
:103CE0000A4C236843F4807323600244084BD2B229
:103CF000904200D130BD441C00B251F8045B43F83F
:103D00002050E0B2F4E700BF001002400070004015
:103D10005028004007B5012201A90020FFF7BEFF8F
:103D2000019803B05DF804FB13B50446FFF7F2FFFA
:103D3000A04205D0012201A900200194FFF7C0FF95
:103D400002B010BD704700007047000070470000CF
:103D5000074B45F255521A6003225A6040F2FF7237
:103D60009A604CF6CC421A60024B01221A707047DE
:103D700000300040803A0020034B1B781BB1034BFE
:103D80004AF6AA221A607047803A002000300040AC
:103D9000054B1A6832B902F1804202F50432D2F8BA
:103DA00094201A60704700BF7C3A0020024B4FF409
:103DB0000002C3F8942070470010024008B5FFF7D6
:103DC000E7FF024B1868C0F3407008BD7C3A002042
:103DD00070470000FEE700000A4B0B480B4A904278
:103DE0000BD30B4BDA1C121AC11E22F003028B42BA
:103DF00038BF00220021FDF70DB953F8041B40F82D
:103E0000041BECE7BC450008043B0020043B0020F9
:103E1000043B002000F0BEB84FF08043586A704762
:103E20004FF08043002258631A610222DA60704723
:103E30004FF080430022DA60704700004FF080436B
:103E400058637047FEE7000070B51B4B0163002507
:103E5000044686B0586085620E46FFF701FB04F108
:103E60001003C4E904334FF0FF33C4E90635C4E955
:103E70000044A560E562FFF7CFFF2B460246C4E988
:103E8000082304F134010D4A256580232046FFF7FD
:103E90000FFC0123E0600A4A0375009272680192E8
:103EA000B268CDE90223074B6846CDE90435FFF738
:103EB00027FC06B070BD00BF603A00203045000806
:103EC00035450008453E0008024AD36A1843D062CF
:103ED000704700BF38380020244B2548DA6A42F08A
:103EE000070210B4DA62DA6A224C22F00702DA62C0
:103EF000DA6ADA6C42F00702DA64DA6E42F007023C
:103F0000DA664FF09042DB6E4FF0AA310023536027
:103F10009160D0604FF6FF7050611362536214607D
:103F20001024C2F80434C2F80814C2F80C444FF646
:103F3000F774C2F814449924C2F82034C2F8244417
:103F40000D4CC2F80044C2F80438C2F80818C2F890
:103F50000C38C2F81408C2F82038C2F82438C2F865
:103F600000385DF8044B00F055B800BF0010024067
:103F7000000100240001002850000A0008B500F0EC
:103F800005FAFFF76DFBBDE80840FFF701BF000031
:103F9000704700000F4B9A6D42F001029A659A6FCC
:103FA00042F001029A670C4A9B6F936843F0010349
:103FB00093604FF080434F229A624FF0FF32DA62F3
:103FC00000229A615A63DA605A6001225A611A60CB
:103FD000704700BF00100240002004E04FF0804214
:103FE00008B51169D3680B40D9B2C9439B07116169
:103FF00007D5302383F31188FFF758FB002383F3A1
:10400000118808BD08B5FFF779FABDE8084000F04F
:1040100099B900005A4B4FF0FF319A6A99629A6A37
:1040200000229A62986AD86A60F00700D862D86A5B
:1040300000F00700D862D86A186B1963186B1A630E
:10404000186B986B9963986B9A63986BD86BD9636C
:10405000D86BDA63D86B186C1964196C1A641A6C13
:10406000484A4FF4E06111601A6E474942F001027C
:104070001A66D3F8802022F00102C3F88020D3F81A
:1040800080209A6D42F080529A659A6F22F0805299
:104090009A679A6F4FF440720A604A6912F480621C
:1040A000FBD14A601A6822F0F00242F060021A6006
:1040B0001A6842F001021A601A689107FCD50022C2
:1040C0009A609A6812F00C02FBD1D3F8901011F4A8
:1040D000407F1EBF4FF48031C3F89010C3F890208A
:1040E00061221A601A689207FCD500229A609A68C9
:1040F00012F00C0FFBD169221A60D3F8942022F43D
:10410000706242F4C062C3F894201A6842F48032AC
:104110001A601A689003FCD5D3F8902022F003228D
:10412000C3F89020194ADA601A6842F080721A6067
:104130001A689101FCD5164A1A611A6842F0806229
:104140001A601A681201FCD500229A600D49114AC2
:10415000C3F888200A6822F0070242F004020A60CD
:104160000A6802F00702042AFAD19A6842F00302B0
:104170009A609A6802F00C020C2AFAD1704700BFCC
:1041800000100240002002400070004003140001B3
:10419000000C100055550134074A08B5536903F067
:1041A0000103536123B1054A13680BB15068984766
:1041B000BDE80840FFF778B900040140843A0020C8
:1041C000074A08B5536903F00203536123B1054A56
:1041D00093680BB1D0689847BDE80840FFF764B911
:1041E00000040140843A0020074A08B5536903F0EF
:1041F0000403536123B1054A13690BB15069984711
:10420000BDE80840FFF750B900040140843A00209F
:10421000074A08B5536903F00803536123B1054AFF
:1042200093690BB1D0699847BDE80840FFF73CB9E6
:1042300000040140843A0020074A08B5536903F09E
:104240001003536123B1054A136A0BB1506A9847B2
:10425000BDE80840FFF728B900040140843A002077
:10426000164B10B55C6904F478725A61A30604D544
:10427000134A936A0BB1D06A9847600604D5104A76
:10428000136B0BB1506B9847210604D50C4A936B06
:104290000BB1D06B9847E20504D5094A136C0BB1FA
:1042A000506C9847A30504D5054A936C0BB1D06CAC
:1042B0009847BDE81040FFF7F7B800BF0004014081
:1042C000843A0020194B10B55C6904F47C425A61B1
:1042D000620504D5164A136D0BB1506D984723053E
:1042E00004D5134A936D0BB1D06D9847E00404D503
:1042F0000F4A136E0BB1506E9847A10404D50C4AB7
:10430000936E0BB1D06E9847620404D5084A136FC0
:104310000BB1506F9847230404D5054A936F0BB136
:10432000D06F9847BDE81040FFF7BEB800040140C9
:10433000843A002008B5FFF751FEBDE80840FFF7BA
:10434000B3B80000062108B50846FFF7EBF80621D0
:104350000720FFF7E7F806210820FFF7E3F806211A
:104360000920FFF7DFF806210A20FFF7DBF8062116
:104370001720FFF7D7F806212820FFF7D3F8BDE86C
:10438000084007211C20FFF7CDB8000008B5FFF753
:1043900039FE00F007F8FFF7FBFDBDE80840FFF726
:1043A00039BD00000023054A19460133102BC2E92C
:1043B000001102F10802F8D1704700BF843A0020D2
:1043C0000B460146184600F009B80000024B0A46A9
:1043D00001461868FFF714BC1811002010B5054CF1
:1043E00013462CB10A4601460220AFF3008010BDEF
:1043F0002046FCE700000000024B01461868FFF76A
:1044000003BC00BF1811002010B5013902449042CE
:1044100001D1002005E0037811F8014FA34201D03B
:10442000181B10BD0130F2E72DE9F041A3B1C91A04
:1044300017780144044603F1FF3C8C42204601D921
:10444000002009E00578BD4204F10104F5D10CEB30
:104450000405D618A54201D1BDE8F08115F8018DFB
:1044600016F801EDF045F5D0E7E70000034611F836
:10447000012B03F8012B002AF9D170476F72672EC8
:104480006172647570696C6F742E4265796F6E64C9
:10449000526F626F7469784D2D5065726970680053
:1044A00040A2E4F1646891060041A3E5F2656992D7
:1044B000070000004261642043414E496661636524
:1044C00020696E6465782E00800000000080000086
:1044D00000008000000000000000000095180008A7
:1044E000D920000835200008D5180008E118000878
:1044F000ED1A0008A5180008B5180008A91800084A
:10450000B1180008AD180008091A0008B918000809
:1045100009240008AD230008C9180008DD190008A7
:10452000633000002045000890380020603A0020E9
:104530006D61696E0069646C650000000000000038
:10454000F8110000000000000060030000000000FF
:10455000FE2A0100D20400001C110020000000000F
:10456000000000000000000000000000000000004B
:10457000000000000000000000000000000000003B
:10458000000000000000000000000000000000002B
:10459000000000000000000000000000000000001B
:1045A000000000000000000000000000000000000B
:1045B000000000000000000000000000FFFFFFFFFF
:1045C000FFFFFFFFFFFFFFFFFFFFFFFFFFFFFFFFFB
:1045D000FFFFFFFFFFFFFFFFFFFFFFFFFFFFFFFFEB
:1045E000FFFFFFFFFFFFFFFFFFFFFFFFFFFFFFFFDB
:1045F000FFFFFFFFFFFFFFFFFFFFFFFFFFFFFFFFCB
:10A00000000400204DB20008A5A6010801A6010821
:10A010006DA6010801A6010839A601084FB2000883
:10A020004FB200084FB200084FB20008B16D0208ED
:10A030004FB200084FB200084FB200084FB20008FC
:10A040004FB200084FB200084FB200084FB20008EC
:10A050004FB200084FB200085DA4020885A40208B0
:10A06000ADA40208D5A40208FDA40208E574020804
:10A07000F97402080D750208217502083575020889
:10A08000497502085D7502084FB200085D8B010832
:10A09000898B0108998B01084FB2000825A5020899
:10A0A00035A6020845A6020859A602085DA60208C0
:10A0B0004FB200084FB200084FB200084FB200087C
:10A0C0004FB20008D1780208057A02084FB20008A2
:10A0D0004FB20008F9A502080DA6020821A6020841
:10A0E00089A502084FB200084FB200084FB200081D
:10A0F0004FB200084FB200084FB200084FB200083C
:10A100004FB200084FB200084FB200084FB200082B
:10A110004FB200084FB200084FB200084FB200081B
:10A12000717502088575020899750208AD750208F7
:10A13000C17502084FB200084FB200084FB20008C4
:10A140004FB200084FB200084FB200084FB20008EB
:10A15000D5750208E97502084FB200084FB2000831
:10A160004FB200084FB200084FB200084FB20008CB
:10A170004FB200084FB200084FB200084FB20008BB
:10A180004FB200084FB200084FB200084FB20008AB
:10A190004FB200084FB200084FB200084FB200089B
:10A1A0007DB80008A9290108F17C0108AD900108DB
:10A1B0008D9401082D9B010801A00108FDA701084D
:10A1C0000539020800000000000000000000000047
:10A1D00040A2E4F164689106B39539ECDCC0EECEA0
:10A1E00048E00200150CE7990000F811FFFFFFFF9F
:10A1F000FFFFFFFF81F0004102E000BF83F000435A
:10A2000030B54FEA41044FEA430594EA050F08BF11
:10A2100090EA020F1FBF54EA000C55EA020C7FEAD5
:10A22000645C7FEA655C00F0E2804FEA5454D4EB52
:10A230005555B8BF6D420CDD2C4480EA020281EA1C
:10A24000030382EA000083EA010180EA020281EA54
:10A250000303362D88BF30BD11F0004F4FEA0131A6
:10A260004FF4801C4CEA113102D0404261EB4101B5
:10A2700013F0004F4FEA03334CEA133302D052423B
:10A2800063EB430394EA050F00F0A780A4F10104F7
:10A29000D5F1200E0DDB02FA0EFC22FA05F2801831
:10A2A00041F1000103FA0EF2801843FA05F3594117
:10A2B0000EE0A5F120050EF1200E012A03FA0EFC96
:10A2C00028BF4CF0020C43FA05F3C01851EBE371C0
:10A2D00001F0004507D54FF0000EDCF1000C7EEBDD
:10A2E00000006EEB0101B1F5801F1BD3B1F5001F1B
:10A2F0000CD349085FEA30004FEA3C0C04F101043A
:10A300004FEA445212F5800F80F09A80BCF1004F62
:10A3100008BF5FEA500C50F1000041EB045141EAE4
:10A32000050130BD5FEA4C0C404141EB0101013CAD
:10A3300028BFB1F5801FE9D291F0000F04BF01469C
:10A340000020B1FA81F308BF2033A3F10B03B3F16E
:10A3500020020CDA0C3208DD02F1140CC2F10C02FE
:10A3600001FA0CF021FA02F10CE002F11402D8BF5C
:10A37000C2F1200C01FA02F120FA0CFCDCBF41EA28
:10A380000C019040E41AA2BF01EB0451294330BDF7
:10A390006FEA04041F3C1CDA0C340EDC04F11404D4
:10A3A000C4F1200220FA04F001FA02F340EA0300AB
:10A3B00021FA04F345EA030130BDC4F10C04C4F1F1
:10A3C000200220FA02F001FA04F340EA03002946D1
:10A3D00030BD21FA04F0294630BD94F0000F83F41B
:10A3E000801306BF81F480110134013D4EE77FEAFE
:10A3F000645C18BF7FEA655C29D094EA050F08BF4A
:10A4000090EA020F05D054EA000C04BF194610462A
:10A4100030BD91EA030F1EBF0021002030BD5FEA6E
:10A42000545C05D14000494128BF41F0004130BD96
:10A4300014F580043CBF01F5801130BD01F00045EA
:10A4400045F0FE4141F470014FF0000030BD7FEA5D
:10A45000645C1ABF194610467FEA655C1CBF0B4658
:10A46000024650EA013406BF52EA033591EA030F6F
:10A4700041F4002130BD00BF90F0000F04BF002167
:10A48000704730B54FF4806404F132044FF000059A
:10A490004FF0000150E700BF90F0000F04BF002113
:10A4A000704730B54FF4806404F1320410F0004579
:10A4B00048BF40424FF000013EE700BF42004FEA74
:10A4C000E2014FEA31014FEA02701FBF12F07F43F1
:10A4D00093F07F4F81F06051704732F07F4208BFA8
:10A4E000704793F07F4F04BF41F40021704730B5AF
:10A4F0004FF4607401F0004521F000411CE700BFFB
:10A5000050EA010208BF704730B54FF000050AE07D
:10A5100050EA010208BF704730B511F0004502D57E
:10A52000404261EB41014FF4806404F132045FEA80
:10A53000915C3FF4D8AE4FF003025FEADC0C18BF29
:10A5400003325FEADC0C18BF033202EBDC02C2F11B
:10A55000200300FA03FC20FA02F001FA03FE40EAAD
:10A560000E0021FA02F11444BDE600BF70B54FF0B1
:10A57000FF0C4CF4E06C1CEA11541DBF1CEA13558F
:10A5800094EA0C0F95EA0C0F00F0DEF82C4481EAF7
:10A59000030621EA4C5123EA4C5350EA013518BF17
:10A5A00052EA033541F4801143F4801338D0A0FB04
:10A5B00002CE4FF00005E1FB02E506F00042E0FBB1
:10A5C00003E54FF00006E1FB03569CF0000F18BFB7
:10A5D0004EF0010EA4F1FF04B6F5007F64F540745F
:10A5E00004D25FEA4E0E6D4146EB060642EAC621F2
:10A5F00041EA55514FEAC52040EA5E504FEACE2E5F
:10A60000B4F1FD0C88BFBCF5E06F1ED8BEF1004F61
:10A6100008BF5FEA500E50F1000041EB045170BDDD
:10A6200006F0004646EA010140EA020081EA030121
:10A63000B4EB5C04C2BFD4EB0C0541EA045170BD1D
:10A6400041F480114FF0000E013C00F3AB8014F197
:10A65000360FDEBF002001F0004170BDC4F10004E0
:10A66000203C35DA0C341BDC04F11404C4F1200561
:10A6700000FA05F320FA04F001FA05F240EA0200BC
:10A6800001F0004221F0004110EBD37021FA04F6F2
:10A6900042EB06015EEA430E08BF20EAD37070BDAC
:10A6A000C4F10C04C4F1200500FA04F320FA05F00B
:10A6B00001FA04F240EA020001F0004110EBD3700D
:10A6C00041F100015EEA430E08BF20EAD37070BD7D
:10A6D000C4F1200500FA05F24EEA020E20FA04F356
:10A6E00001FA05F243EA020321FA04F001F0004105
:10A6F00021FA04F220EA020000EBD3705EEA430E76
:10A7000008BF20EAD37070BD94F0000F0FD101F0A4
:10A710000046400041EB010111F4801F08BF013CDD
:10A72000F7D041EA060195F0000F18BF704703F01B
:10A730000046520043EB030313F4801F08BF013DA2
:10A74000F7D043EA0603704794EA0C0F0CEA13555E
:10A7500018BF95EA0C0F0CD050EA410618BF52EA18
:10A760004306D1D181EA030101F000414FF000001E
:10A7700070BD50EA410606BF1046194652EA43062C
:10A7800019D094EA0C0F02D150EA013613D195EAA0
:10A790000C0F05D152EA03361CBF104619460AD1E8
:10A7A00081EA030101F0004141F0FE4141F47001F2
:10A7B0004FF0000070BD41F0FE4141F4780170BDE2
:10A7C00070B54FF0FF0C4CF4E06C1CEA11541DBF47
:10A7D0001CEA135594EA0C0F95EA0C0F00F0A7F849
:10A7E000A4EB050481EA030E52EA03354FEA013176
:10A7F00000F088804FEA03334FF0805545EA131389
:10A8000043EA12634FEA022245EA111545EA106550
:10A810004FEA00260EF000419D4208BF964244F1E7
:10A82000FD0404F5407402D25B084FEA3202B61A06
:10A8300065EB03055B084FEA32024FF480104FF4DA
:10A84000002CB6EB020E75EB030E22BFB61A75464E
:10A8500040EA0C005B084FEA3202B6EB020E75EBE1
:10A86000030E22BFB61A754640EA5C005B084FEA49
:10A870003202B6EB020E75EB030E22BFB61A754616
:10A8800040EA9C005B084FEA3202B6EB020E75EB21
:10A89000030E22BFB61A754640EADC0055EA060EE2
:10A8A00018D04FEA051545EA16754FEA06164FEA25
:10A8B000C30343EA52734FEAC2025FEA1C1CC0D1D1
:10A8C00011F4801F0BD141EA00014FF000004FF05E
:10A8D000004CB6E711F4801F04BF01430020B4F11F
:10A8E000FD0C88BFBCF5E06F3FF6AFAEB5EB030CD7
:10A8F00004BFB6EB020C5FEA500C50F1000041EBD4
:10A90000045170BD0EF0004E4EEA113114EB5C04A0
:10A91000C2BFD4EB0C0541EA045170BD41F4801173
:10A920004FF0000E013C90E645EA060E8DE60CEA7B
:10A93000135594EA0C0F08BF95EA0C0F3FF43BAF98
:10A9400094EA0C0F0AD150EA01347FF434AF95EA4F
:10A950000C0F7FF425AF104619462CE795EA0C0F33
:10A9600006D152EA03353FF4FDAE1046194622E700
:10A9700050EA410618BF52EA43067FF4C5AE50EADA
:10A9800041047FF40DAF52EA43057FF4EBAE12E7CA
:10A990004FF0FF3C06E000BF4FF0010C02E000BFAB
:10A9A0004FF0010C4DF804CD4FEA410C7FEA6C5C8E
:10A9B0004FEA430C18BF7FEA6C5C1BD001B050EA31
:10A9C000410C0CBF52EA430C91EA030F02BF90EA1C
:10A9D000020F0020704710F1000F91EA030F58BFDB
:10A9E000994208BF90422CBFD8176FEAE37040F03D
:10A9F000010070474FEA410C7FEA6C5C02D150EADB
:10AA0000013C07D14FEA430C7FEA6C5CD6D152EA95
:10AA1000033CD3D05DF8040B704700BF844610465A
:10AA200062468C461946634600E000BF01B5FFF759
:10AA3000B7FF002848BF10F1000F01BD4DF808ED29
:10AA4000FFF7F4FF0CBF012000205DF808FB00BFFA
:10AA50004DF808EDFFF7EAFF34BF012000205DF854
:10AA600008FB00BF4DF808EDFFF7E0FF94BF0120A1
:10AA700000205DF808FB00BF4DF808EDFFF7CEFFA2
:10AA800094BF012000205DF808FB00BF4DF808EDE1
:10AA9000FFF7C4FF34BF012000205DF808FB00BFB2
:10AAA0004FEA410C7FEA6C5C02D150EA013C0AD1CA
:10AAB0004FEA430C7FEA6C5C02D152EA033C02D1BC
:10AAC0004FF0000070474FF0010070474FEA41021D
:10AAD00012F5001215D211D56FF47873B3EB6252F0
:10AAE00012D94FEAC12343F0004343EA505311F017
:10AAF000004F23FA02F018BF404270474FF00000A9
:10AB0000704750EA013005D111F0004008BF6FF0E6
:10AB1000004070474FF00000704700BF4A0011D25C
:10AB200012F5001211D20DD56FF47873B3EB6252A7
:10AB30000ED44FEAC12343F0004343EA505323FAB3
:10AB400002F070474FF00000704750EA013002D128
:10AB50004FF0FF3070474FF0000070474FEA41025E
:10AB6000B2F1E04324BFB3F5001CDCF1FE5C0DD96B
:10AB700001F0004C4FEAC0024CEA5070B2F1004FB5
:10AB800040EB830008BF20F00100704711F0804FB8
:10AB900021D113F13872BCBF01F00040704741F47D
:10ABA00080114FEA5252C2F11802C2F1200C10FA81
:10ABB0000CF320FA02F018BF40F001004FEAC12365
:10ABC0004FEAD32303FA0CFC40EA0C0023FA02F309
:10ABD0004FEA4303CCE77FEA625307D150EA0133DF
:10ABE0001EBF4FF0FE4040F44000704701F00040AF
:10ABF00040F0FE4040F40000704700BF80F000408D
:10AC000002E000BF81F0004142001FBF5FEA410344
:10AC100092EA030F7FEA226C7FEA236C6AD04FEA44
:10AC20001262D2EB1363C1BFD21841404840414089
:10AC3000B8BF5B42192B88BF704710F0004F40F43B
:10AC4000000020F07F4018BF404211F0004F41F457
:10AC5000000121F07F4118BF494292EA030F3FD023
:10AC6000A2F1010241FA03FC10EB0C00C3F1200336
:10AC700001FA03F100F0004302D5494260EB4000C5
:10AC8000B0F5000F13D3B0F1807F06D340084FEA30
:10AC9000310102F10102FE2A51D2B1F1004F40EB25
:10ACA000C25008BF20F0010040EA0300704749008D
:10ACB00040EB0000013A28BFB0F5000FEDD2B0FA2A
:10ACC00080FCACF1080CB2EB0C0200FA0CF0AABF4D
:10ACD00000EBC25052421843BCBFD04018437047EB
:10ACE00092F0000F81F4000106BF80F400000132F1
:10ACF000013BB5E74FEA41037FEA226C18BF7FEAC8
:10AD0000236C21D092EA030F04D092F0000F08BF09
:10AD10000846704790EA010F1CBF0020704712F0F0
:10AD20007F4F04D1400028BF40F00040704712F12F
:10AD300000723CBF00F50000704700F0004343F094
:10AD4000FE4040F4000070477FEA226216BF0846CA
:10AD50007FEA23630146420206BF5FEA412390EA8D
:10AD6000010F40F4800070474FF0000304E000BF83
:10AD700010F0004348BF40425FEA000C08BF704734
:10AD800043F0964301464FF000001CE050EA0102F8
:10AD900008BF70474FF000030AE000BF50EA01020D
:10ADA00008BF704711F0004302D5404261EB4101FA
:10ADB0005FEA010C02BF84460146002043F0B6431F
:10ADC00008BFA3F18053A3F50003BCFA8CF2083A44
:10ADD000A3EBC25310DB01FA02FC634400FA02FC4D
:10ADE000C2F12002BCF1004F20FA02F243EB020054
:10ADF00008BF20F00100704702F1200201FA02FCB6
:10AE0000C2F1200250EA4C0021FA02F243EB0200A8
:10AE100008BF20EADC7070477BB972B90029BEBF59
:10AE200000204FF0004106E008BF00281CBF6FF073
:10AE300000414FF0FF3000F007BAADF1080C6DE9AA
:10AE400004CE002909DB002B1ADB00F095F8DDF8B1
:10AE500004E0DDE9022304B07047404261EB4101A8
:10AE6000002B1BDB00F088F8DDF804E0DDE90223AD
:10AE700004B0404261EB4101524263EB430370472F
:10AE8000524263EB430300F077F8DDF804E0DDE9BC
:10AE9000022304B0404261EB41017047524263EB30
:10AEA000430300F069F8DDF804E0DDE9022304B0B3
:10AEB000524263EB4303704753B94AB9002908BFB4
:10AEC00000281CBF4FF0FF314FF0FF3000F0BCB93D
:10AED000ADF1080C6DE904CE00F04EF8DDF804E0A9
:10AEE000DDE9022304B07047430803F05533C01A6C
:10AEF000830803F0333300F03330184400EB1010B4
:10AF000000F00F3000EB002000EB0040000E704717
:10AF100007EE900AF5EEC07AF1EE10FA01D400F0D7
:10AF20000BB8F1EE677A08B517EE900A00F004F856
:10AF3000404261EB410108BDD0B5FFF7BFFA0C4BB1
:10AF4000002206460F46FFF711FBFFF7E7FD044618
:10AF5000FFF792FA074B0022FFF708FB02460B4669
:10AF600030463946FFF74AF9FFF7D8FD2146D0BDF4
:10AF70000000F03D0000F0412DE9F047089D044637
:10AF80008E46002B4DD18A42944669D9B2FA82F29C
:10AF900052B101FA02F3C2F1200120FA01F10CFAD8
:10AFA00002FC41EA030E94404FEA1C48210CBEFB10
:10AFB000F8F61FFA8CF708FB16E341EA034306FB99
:10AFC00007F199420AD91CEB030306F1FF3080F028
:10AFD0001F81994240F21C81023E63445B1AA4B275
:10AFE000B3FBF8F008FB103344EA034400FB07F717
:10AFF000A7420AD91CEB040400F1FF3380F00A8158
:10B00000A74240F207816444023840EA0640E41B4C
:10B0100000261DB1D4400023C5E900433146BDE8F8
:10B02000F0878B4209D9002D00F0EF800026C5E99A
:10B03000000130463146BDE8F087B3FA83F6002EB2
:10B040004AD18B4202D3824200F2F980841A61EB2A
:10B05000030301209E46002DE0D0C5E9004EDDE748
:10B0600002B9FFDEB2FA82F2002A40F09280A1EB30
:10B070000C014FEA1C471FFA8CFE0126200CB1FB85
:10B08000F7F307FB131140EA01410EFB03F088427E
:10B0900008D91CEB010103F1FF3802D2884200F20B
:10B0A000CB804346091AA4B2B1FBF7F007FB10119D
:10B0B00044EA01440EFB00FEA64508D91CEB04043B
:10B0C00000F1FF3102D2A64500F2BB800846A4EB96
:10B0D0000E0440EA03409CE7C6F12007B34022FA81
:10B0E00007FC4CEA030C20FA07F401FA06F31C43B0
:10B0F000F9404FEA1C4900FA06F3B1FBF9F8200CBD
:10B100001FFA8CFE09FB181140EA014108FB0EF002
:10B11000884202FA06F20BD91CEB010108F1FF3A52
:10B1200080F08880884240F28580A8F1020861445E
:10B13000091AA4B2B1FBF9F009FB101144EA01416C
:10B1400000FB0EFE8E4508D91CEB010100F1FF3417
:10B150006CD28E456AD90238614440EA0840A0FBAF
:10B160000294A1EB0E01A142C846A64656D353D085
:10B170005DB1B3EB080261EB0E0101FA07F722FAA9
:10B1800006F3F1401F43C5E9007100263146BDE8D2
:10B19000F087C2F12003D8400CFA02FC21FA03F335
:10B1A000914001434FEA1C471FFA8CFEB3FBF7F0B6
:10B1B00007FB10360B0C43EA064300FB0EF69E42DB
:10B1C00004FA02F408D91CEB030300F1FF382FD274
:10B1D0009E422DD9023863449B1B89B2B3FBF7F61C
:10B1E00007FB163341EA034106FB0EF38B4208D9F5
:10B1F0001CEB010106F1FF3816D28B4214D9023E36
:10B200006144C91A46EA004638E72E46284605E753
:10B210000646E3E61846F8E64B45A9D2B9EB020824
:10B2200064EB0C0E0138A3E74646EAE7204694E7B4
:10B230004046D1E7D0467BE7023B614432E73046E7
:10B2400009E76444023842E7704700BF02E000F0BB
:10B2500000F8FEE772B6374880F30888364880F376
:10B26000098836483649086040F20000CCF20000F8
:10B270004EF63471CEF200010860BFF34F8FBFF37A
:10B280006F8F40F20000C0F2F0004EF68851CEF20F
:10B2900000010860BFF34F8FBFF36F8F4FF00000C6
:10B2A000E1EE100A4EF63C71CEF200010860062075
:10B2B00080F31488BFF36F8F1EF08AFE1EF092FF9A
:10B2C0004FF055301F491B4A91423CBF41F8040BD7
:10B2D000FAE71D49184A91423CBF41F8040BFAE7CE
:10B2E0001A491B4A1B4B9A423EBF51F8040B42F8C5
:10B2F000040BF8E700201849184A91423CBF41F876
:10B30000040BFAE71EF068FE1EF0CCFF144C154D3E
:10B31000AC4203DA54F8041B8847F9E700F09EFAC0
:10B32000114C124DAC4203DA54F8041B8847F9E77C
:10B330001EF050BE00040020000E002000A00008F7
:10B3400008ED00E00001002000040020807D0308DB
:10B35000000E0020C8100020C81000201077002028
:10B36000A0A10008C4A10008C4A10008C4A100084D
:10B370002DE9F04F2DED108AC1F80CD0C3689D4621
:10B38000BDEC108ABDE8F08F002383F311882846B6
:10B39000A04700201EF028F8FEE71DF0C7FE00DFE2
:10B3A000FEE7000001F0FF01102A2BDB10F0070F71
:10B3B00008D010F8013B013A8B422DD010F0070F56
:10B3C00042B3F6D1F0B441EA012141EA014122F051
:10B3D00007047FF000070023F0E80256083C85EAE6
:10B3E000010586EA010685FA47F5A3FA87F586FA8C
:10B3F00047F6A5FA87F68EB9EED1F0BC01F0FF0151
:10B4000002F0070232B110F8013B013A83EA01036E
:10B4100013B1F8D10020704701387047002D06BFE6
:10B4200035460338073815F0010F07D1013015F400
:10B43000807F02BF013015F4C03F0130F0BC0138FD
:10B44000704700BF10F8012B11F8013B012A28BFFB
:10B450009A42F7D0D01A7047034613F8012B002AFE
:10B46000FBD1181A0138704738B500220023044672
:10B470000D46FFF7EDFA28B920462946BDE83840C9
:10B4800000F00AB8204605F1004100F005F84042FE
:10B4900061EB410138BD00BFD0B50C4B0022064620
:10B4A0000F46FFF763F8FFF739FB0446FEF7E4FFAA
:10B4B000074B0022FFF75AF802460B463046394642
:10B4C000FEF79CFEFFF72AFB2146D0BD0000F03DB1
:10B4D0000000F04170470000704700007FB504464F
